:020000040800F2
:1000000038420020AD1500080D1600080D16000836
:100010000D1600080D1600080D160008000000005F
:100020000000000000000000000000004157000830
:100030000D16000800000000315900087959000829
:100040000D1600080D1600080D1600080D16000804
:100050000D1600080D160008AD2600080D0D00084D
:10006000590D00082D2700080D1600080D16000870
:100070000D1600080D160008E12500088D25000862
:100080000D1600080D4600080D1600080D16000894
:100090000D1600080D1600080D1600080D160008B4
:1000A0000D160008F11300080D1600080D160008C3
:1000B000056A00080D1600080D160008A144000886
:1000C0000D160008192C00080D1600080D16000862
:1000D0000D1600080D1600080D1600080D16000874
:1000E0000D1600080D1600080D160008000000008F
:1000F0000000000000000000000000000000000000
:1001000000000000000000005FF808F190B583B027
:1001100000AF78607B68B4229A817B6800221A74F1
:100120007B6800225A747B6800221A707B68002268
:100130005A707B6800221A817B6800225A817B6892
:100140000022DA807B6800229A747B680822DA81B8
:100150007B6800221A767B6800225A7600211D20D7
:1001600001F084F80346AA2B24D100211E2001F0BF
:100170007DF803469CB201211E2001F077F803466A
:100180009BB21B029BB223439AB27B689A820221E4
:100190001E2001F06BF803469CB203211E2001F0E3
:1001A00065F803469BB21B029BB223439AB27B685D
:1001B000DA8205E07B6814229A827B681422DA8254
:1001C00000BF0C37BD4690BD80B582B000AF0121A5
:1001D000082002F0E5FC1023FB711823BB800223EA
:1001E000BB713B1D1946124801F014FA012104208D
:1001F00002F0D6FC1023FB714FF40043BB800223B6
:10020000BB713B1D19460B4801F004FA0821084850
:1002100001F0E4FA1021064801F0E0FA4FF4004141
:10022000044801F0DBFA00BF0837BD4680BD00BFBF
:10023000000C01400008014080B582B000AF0023EF
:10024000FB71B023BB800223BB713B1D19460348E1
:1002500001F0E0F900BF0837BD4680BD000801404D
:1002600080B586B000AFFFF7E7FF01214FF40070C3
:1002700002F096FC4FF4004002F076FB01237B7203
:1002800000233B614FF46023FB6000237B6003236A
:100290003B7501233B723B1D19461C4803F0BEFD14
:1002A00003211A4803F05CFF0121184803F090FE77
:1002B0000121164803F004FE144803F01DFE00BFA0
:1002C000124803F029FE0346002BF9D10F4803F032
:1002D0003BFE00BF0D4803F047FE0346002BF9D15B
:1002E000032301220421094803F0AAFE032302226A
:1002F0000521064803F0A4FE032303220721034837
:1003000003F09EFE00BF1837BD4680BD00240140AB
:1003100080B483B000AF0346FB80FB884FF4A57226
:1003200002FB03F3194A82FB03121A44D212DB17B1
:10033000D31A174A1360164B1B684FF4C87202FB9E
:1003400003F3A3F54E53103B124A82FB0312D21162
:10035000DB17D31A3233104A13600F4B1A68134657
:100360001B019B1A9B00A3F6B8330C4A82FB0312B5
:10037000D211DB17D31A1E3B094A1360084B1B68C6
:100380001BB218460C37BD4680BC70478100088000
:1003900034000020EB01BA7A380000201F85EB51B1
:1003A0003C00002080B483B000AF78607B689B7C09
:1003B000002B02D0012B4AD09DE07B689B89002B4B
:1003C00041D04F4B1B8801339AB24D4B1A807B684A
:1003D0009A8A4B4B1B889A4200F28A807B689A89E2
:1003E0007B689989474B1B88B1FBF3F39BB2D31A07
:1003F0009AB27B689A817B689B891A461346D20021
:100400009B1A1B0103F59D4340333F4A82FB0312B5
:100410001A44D211DB17D31A9BB208339AB27B6805
:10042000DA81374B00221A80364B1B88002B06D00E
:10043000344B1B88013B9AB2324B1A8058E0314B47
:1004400001221A8054E07B6802229A7450E07B6893
:100450009B89B32B42D82A4B1B8801339AB2284B75
:100460001A807B68DA8A264B1B889A4242D87B68BE
:100470009A897B689B89C3F1B4032249098893FB5D
:10048000F1F39BB213449AB27B689A817B689B8993
:100490001A461346D2009B1A1B0103F59D434033B5
:1004A000194A82FB03121A44D211DB17D31A9BB2EA
:1004B00008339AB27B68DA81114B00221A80114B03
:1004C0001B88002B06D00F4B1B88013B9AB20D4BAB
:1004D0001A800FE00B4B01221A800BE0084B002220
:1004E0001A80084B64221A807B6803229A7401E008
:1004F00000BF00E000BF00BF0C37BD4680BC7047A6
:100500004000002000000020B7600BB680B584B02A
:1005100000AF0346FB710023FB730023FB7312E063
:1005200010210F4801F04CF94FF4FA7002F0E2FD8F
:1005300010210B4801F052F94FF4FA7002F0DAFD85
:10054000FB7B0133FB73FA7BFB799A42E8D31021E2
:10055000034801F035F900BF1037BD4680BD00BF2C
:10056000000C014080B582B000AF78607B68052246
:100570009A74074B00221A87064B00229A8608219C
:10058000054801F02BF900BF0837BD4680BD00BF0C
:10059000002C014000040040000C014080B582B0F6
:1005A00000AF78600B46FB707B689B88C82B09D92D
:1005B0007868FFF7D7FFFB781846FFF7A7FF002002
:1005C00002F00AFD00BF0837BD4680BD80B582B08D
:1005D00000AF7860284A284B1B6843F00203136081
:1005E000254A254B1B6823F0040313607B68002217
:1005F0009A8003E006217868FFF7D0FF7B681B78BC
:10060000012BF7D17B6800229A801B4A1A4B1B688A
:1006100043F00403136003E004217868FFF7BEFF92
:100620007B685B78012BF7D17B689B88812B09D88D
:100630007868FFF797FF0220FFF768FF002002F0BD
:10064000CBFC0CE07B689B88C82B08D97868FFF747
:1006500089FF0120FFF75AFF002002F0BDFC7B68F4
:1006600000221A707B6800225A707B6800229A80F0
:1006700000BF0837BD4680BD0004014080B586B08C
:1006800000AF78607B681B88DBB2BB607B681B882F
:100690001B0A9BB2FB607B685B88DBB23B617B68BB
:1006A0005B881B0A9BB27B6107F108030422194691
:1006B0001E2000F09DFD00BF1837BD4680BD00BF65
:1006C00080B483B000AF78607B6800221A8100BFDD
:1006D0000C37BD4680BC704780B483B000AF7860F3
:1006E0007B6800225A8100BF0C37BD4680BC704732
:1006F00080B483B000AF78607B6800221A767B6894
:1007000000221A8100BF0C37BD4680BC704700BF75
:1007100080B483B000AF78607B6800225A767B6833
:1007200000225A8100BF0C37BD4680BC704700BF15
:1007300080B582B000AF78607B6805229A740A4B5E
:1007400000221A87094B00229A860821084801F0E6
:1007500045F81021064801F033F8002002F03CFC77
:1007600000BF0837BD4680BD002C0140000400409A
:10077000000C014080B483B000AF78607B68002B30
:1007800002DA7B685B4200E07B6818460C37BD46A6
:1007900080BC704780B582B000AF786039602D4B67
:1007A0001B6800223968184604F008FC0346012B38
:1007B00016D100211D2000F059FD0346AA2B04D0BC
:1007C000AA2200211D2000F0EFFC3868FFF756FF39
:1007D0003B681A887B689A823B685A887B68DA8211
:1007E0001D4A1D4B1B6843F0010313601A4A1A4B44
:1007F0001B6843F008031360174A174B1B6843F04C
:1008000002031360144A144B1B6823F004031360A3
:100810007B6800221A707B6800225A7000BF7B68D8
:100820001B78012BFBD17B680022DA807B680022D9
:100830009A807B6800221A817B6800225A817B683B
:1008400000221A767B6800225A7600BF0837BD4620
:1008500080BD00BFF03D00200004014080B483B0A3
:1008600000AF7860204B00221A87204B00229A8626
:100870001F4A1F4B1B6823F0020313601C4A1C4BCA
:100880001B6823F004031360194A194B1B6843F0DB
:1008900001031360164A164B1B6843F008031360EC
:1008A0007B6800221A817B6800221A747B68002210
:1008B0005A817B6800225A747B680022DA807B6848
:1008C00000229A807B6800221A767B6800225A7682
:1008D0007B6800221A707B6800225A7000BF0C37B8
:1008E000BD4680BC704700BF002C014000040040A2
:1008F0000004014080B500AF0D4B1B684FF0FF3185
:10090000184604F037FC642002F0F4FB00BF01211C
:10091000084800F03BFF0346002BF8D0642002F0AB
:10092000E9FB0C2200211F2000F03EFC00BF80BD2F
:10093000CC3D00200008014080B58EB000AF78604B
:1009400000237B6300233B630023FB6207F110035A
:100950001846FFF7DBFBBA4A07F110031360FFF7F5
:1009600033FCFFF769FCFFF77BFC0121B54803F07E
:1009700013FB0121B34803F047FB00F071F900F0CD
:100980000FFD00F0ADFC00F089FCAF4B1B684FF091
:10099000FF31184604F0EEFB642002F0ABFB00BF11
:1009A0000121AA4800F0F2FE0346002BF8D0642093
:1009B00002F0A0FB07F110031846FFF707FE08211D
:1009C000A34800F0FDFE07F10C0207F110031146E9
:1009D0001846FFF7DFFE9B4BDB6B9BB21846FFF719
:1009E00097FC03467B63974B1B6C9BB21846FFF743
:1009F0008FFC03463B63934B5B6C9BB21846FFF73F
:100A000087FC0346FB62786BFFF7B4FE03460C2BB2
:100A10000BDC386BFFF7AEFE03460C2B05DCF86AE7
:100A2000FFF7A8FE03460C2B04DD07F11003184660
:100A3000FFF77EFE97F82830002B10D1FB8A212B80
:100A40000DD9012387F8283007F110031846FFF766
:100A500037FE07F110031846FFF7A4FC14E097F8DF
:100A60002930002B10D1FB8A632B0DD9012387F885
:100A7000293007F110031846FFF72EFE754A754B13
:100A80001B6843F00203136097F82830012B2BD129
:100A900097F82030002B02D0012B10D024E03A8BA5
:100AA000BB8B9A421DD36C4B03221A87012387F814
:100AB000203007F110031846FFF702FE11E03A8BD1
:100AC000FB8B9A420FD300233B83002387F820300F
:100AD000614B00221A8707F110031846FFF708FE42
:100AE00001E000BF00E000BF97F82930012B2BD1B7
:100AF00097F82130002B02D0012B10D024E07A8B04
:100B0000BB8B9A421DD3554B03229A86012387F84B
:100B1000213007F110031846FFF7DEFD11E07A8B54
:100B2000FB8B9A420FD300237B83002387F821306D
:100B30004A4B00229A8607F110031846FFF7E8FD9A
:100B400001E000BF00E000BF97F82230022B02D086
:100B5000032B27D04AE0404B03221A873F4B032246
:100B60009A864FF40041394800F02AFE40F6B8302A
:100B700002F0C0FA07F110031846FFF76FFEFFF707
:100B8000B9FE07F10C0207F1100311461846FFF7F2
:100B900001FE4FF400412D4800F020FE012387F8AC
:100BA000223023E007F110031846FFF757FE40F606
:100BB000B83002F09FFA0821254800F00FFEFFF739
:100BC00099FE07F110031846FFF700FD07F10C022C
:100BD00007F1100311461846FFF7DCFD08211C48F9
:100BE00000F0EEFD002387F8223000BF164B1B6893
:100BF0000021184604F0BEFA0346012B7FF4EBAE49
:100C00000821134800F0EAFD07F110031846FFF72A
:100C100025FEFFF76FFE07F110031846FFF7D6FC1D
:100C200007F10C0207F1100311461846FFF7B2FD59
:100C30000821074800F0C4FD002387F82230CAE6E7
:100C4000EC3D002000240140CC3D00200008014084
:100C5000000C014000040140002C01400004004051
:100C600080B582B000AF0121042001F099FF482334
:100C7000FB710623BB800223BB713B1D1946204834
:100C800000F0C8FC1F4A1F4B9B6823F0F0039360E1
:100C90001C4A1C4B9B6823F4706393601A4A1A4BDE
:100CA000DB6843F00603D360174B06225A61164AED
:100CB000154B1B6823F002031360134A124B1B6889
:100CC00023F0040313604FF4407005F081F807230C
:100CD0003B7007237B700123FB703B46184605F0F1
:100CE00089F808233B7007237B700123FB703B4688
:100CF000184605F07FF800BF0837BD4680BD00BF2D
:100D000000080140000001400004014080B500AF30
:100D100002210E4800F03AFD0346002B11D10C4B86
:100D20001B6801221A700A4B1B680022DA80084BEC
:100D30001B6800229A80074A064B1B6823F00203B7
:100D40001360022001F0FCFF00BF80BD00080140DD
:100D5000EC3D00200004014080B500AF04210A48AA
:100D600000F014FD0346002B09D1084B1B6801223B
:100D70005A70074A064B1B6823F0040313600420D3
:100D800001F0DEFF00BF80BD00080140EC3D002007
:100D90000004014080B485B000AF78603960002362
:100DA000FB817B681B88FB817B682E4A934213D0B2
:100DB0007B682D4A93420FD07B68B3F1804F0BD0F4
:100DC0007B682A4A934207D07B68294A934203D022
:100DD0007B68284A934208D1FB8923F07003FB818A
:100DE0003B685A88FB891343FB817B68224A934204
:100DF0000CD07B68214A934208D0FB8923F44073CE
:100E0000FB813B68DA88FB891343FB817B68FA89A5
:100E10001A803B689A887B689A853B681A887B6849
:100E20001A857B680F4A93420FD07B680E4A934223
:100E30000BD07B68124A934207D07B68114A9342D9
:100E400003D07B68104A934204D13B681B7A9AB264
:100E50007B681A867B6801229A8200BF1437BD46E0
:100E600080BC7047002C0140003401400004004069
:100E700000080040000C004000100040001400403A
:100E800000400140004401400048014080B485B06A
:100E900000AF7860396000237B810023FB81002351
:100EA000BB817B681B8C9BB223F001039AB27B68E9
:100EB0001A847B681B8CFB817B689B88BB817B6869
:100EC0001B8B7B817B8923F070037B817B8923F0E3
:100ED00003037B813B681A887B8913437B81FB89F1
:100EE00023F00203FB813B681A89FB891343FB81D2
:100EF0003B685A88FB891343FB817B68244A9342F1
:100F00000FD07B68234A93420BD07B68224A9342DE
:100F100007D07B68214A934203D07B68204A9342E2
:100F200023D1FB8923F00803FB813B685A89FB89A5
:100F30001343FB81FB8923F00403FB813B689A8800
:100F4000FB891343FB81BB8923F48073BB81BB897D
:100F500023F40073BB813B689A89BB891343BB812F
:100F60003B68DA89BB891343BB817B68BA899A8065
:100F70007B687A891A833B68DA887B689A867B6803
:100F8000FA891A8400BF1437BD4680BC704700BF81
:100F9000002C014000340140004001400044014069
:100FA0000048014080B485B000AF7860396000230C
:100FB0007B810023FB810023BB817B681B8C9BB260
:100FC00023F010039AB27B681A847B681B8CFB8128
:100FD0007B689B88BB817B681B8B7B817B8923F42F
:100FE000E0437B817B8923F440737B813B681B88D2
:100FF0001B029AB27B8913437B81FB8923F0200378
:10100000FB813B681B891B019AB2FB891343FB815F
:101010003B685B881B019AB2FB891343FB817B68A9
:10102000224A934203D07B68214A93422BD1FB8909
:1010300023F08003FB813B685B891B019AB2FB892B
:101040001343FB81FB8923F04003FB813B689B88B2
:101050001B019AB2FB891343FB81BB8923F4806394
:10106000BB81BB8923F40063BB813B689B899B00E8
:101070009AB2BB891343BB813B68DB899B009AB260
:10108000BB891343BB817B68BA899A807B687A8964
:101090001A833B68DA887B681A877B68FA891A8426
:1010A00000BF1437BD4680BC704700BF002C014014
:1010B0000034014080B483B000AF78600B46FB7011
:1010C000FB78002B08D07B681B889BB243F00103A0
:1010D0009AB27B681A8007E07B681B889BB223F07A
:1010E00001039AB27B681A8000BF0C37BD4680BCF2
:1010F000704700BF80B483B000AF78600B46FB70D0
:10110000FB78002B0CD07B68B3F844309BB26FEABD
:1011100043436FEA53439AB27B68A3F8442009E043
:101120007B68B3F844309BB2C3F30E039AB27B687A
:10113000A3F8442000BF0C37BD4680BC704700BFF9
:1011400080B483B000AF78600B467B8013467B7021
:101150007B78002B08D07B689B899AB27B881343ED
:101160009AB27B689A8109E07B689B899AB27B88F6
:10117000DB439BB213409AB27B689A8100BF0C3765
:10118000BD4680BC704700BF80B483B000AF7860BC
:101190000B467B807B88DB439AB27B681A8200BF58
:1011A0000C37BD4680BC704780B584B000AF0346A5
:1011B0003A60FB710B46BB80FB799A02BB881344F3
:1011C00003F10063FB60FB7903F500339B02BB6016
:1011D00003F0FAFAB86803F017FB3968F86803F00F
:1011E00045FB03F003FB00BF1037BD4680BD00BFC9
:1011F00080B584B000AF03463960FB711346BB7104
:10120000FB7903F500339B02FB6003F0DDFAF8681D
:1012100003F0FAFA134B00221A7018E0114B1B78F6
:101220009B001A46FB6813440F4A13600E4B186864
:101230000C4B1B789B003A6813441B68194603F05B
:1012400015FB084B1B780133DAB2064B1A70054BBD
:101250001B78BA799A42E1D803F0C8FA00BF103778
:10126000BD4680BD440000204800002080B485B009
:1012700000AF03460A46FB711346BB80FB791A0296
:10128000BB88134403F100739B00FB60FB681B6881
:1012900018461437BD4680BC704700BF80B584B087
:1012A00000AF60233B800023FB8001237B80002371
:1012B000BB8000233B810023BB813B461946064887
:1012C000FFF770FE3B4619460448FFF7DFFD00BFFD
:1012D0001037BD4680BD00BF002C01400004004017
:1012E00080B584B000AF01214FF4006001F058FCDC
:1012F0000121022001F072FC2023FB802423BB800B
:1013000063233B8100233B733B1D19462248FFF7B3
:1013100041FD3B1D19462148FFF73CFD4FF440704D
:1013200004F056FD19233B7008237B700123FB70EA
:101330003B46184604F05EFD1D233B7008237B707E
:101340000123FB703B46184604F054FD012112486E
:10135000FFF71AFF012201210F48FFF7F1FE0121DB
:101360000E48FFF711FF002201210C48FFF7E8FEAD
:1013700001210948FFF79EFE01210848FFF79AFE68
:1013800001210548FFF7B6FE01210448FFF7B2FE30
:1013900000BF1037BD4680BD002C01400004004056
:1013A00080B582B000AF0121042001F0F9FB1823C1
:1013B000FB714FF40073BB800223BB713B1D1946C8
:1013C0000A4800F027F90121042001F0E9FB182365
:1013D000FB714023BB800223BB713B1D19460348B0
:1013E00000F018F900BF0837BD4680BD0008014075
:1013F00080B500AF0E4B1B689A88013292B29A807A
:101400000B4B1B68DA88013292B2DA80084B1B68FA
:101410001A89013292B21A81054B1B685A8901322E
:1014200092B25A8101210348FFF7AEFE00BF80BD92
:10143000EC3D0020002C014080B500AF154A154B53
:101440001B6843F0010313601249124B5A68124B98
:1014500013404B600F4A0F4B1B6823F0847323F437
:10146000803313600B4A0B4B1B6823F480231360FB
:10147000084A084B5B6823F4FE035360054B4FF4A6
:101480001F029A6000F00CF8044B4FF000629A6063
:1014900000BF80BD001002400000FFF800ED00E03A
:1014A00080B500AF00F002F800BF80BD80B483B00B
:1014B00000AF00237B6000233B603A4A394B1B6836
:1014C00043F480331360374B1B6803F400333B60F5
:1014D0007B6801337B603B68002B03D17B68B3F5ED
:1014E000A06FF0D12F4B1B6803F40033002B02D008
:1014F00001233B6001E000233B603B68012B4BD1A3
:10150000294A294B1B6843F010031360264A264BD7
:101510001B6823F003031360234A234B1B6843F02B
:10152000020313601F4A1F4B5B6853601D4A1D4B2B
:101530005B6853601B4A1B4B5B6843F480635360DA
:10154000184A184B5B6823F47C135360154A154BFB
:101550005B6843F4E8135360124A124B1B6843F074
:101560008073136000BF0F4B1B6803F00073002BE8
:10157000F9D00C4A0B4B5B6823F003035360094A14
:10158000084B5B6843F00203536000BF054B5B6888
:1015900003F00C03082BF9D100BF0C37BD4680BC0B
:1015A000704700BF001002400020024080B582B0AA
:1015B00000AF114B7B60114B3B6007E03B681A1D8D
:1015C0003A607A68111D796012681A603B680C4AAB
:1015D0009342F3D30B480C494FF000028842B8BF46
:1015E00040F8042BFADBFFF727FF00F08BF900BF70
:1015F0000837BD4680BD00BFCD6E0008000000204A
:101600003400002034000020383E002080B400AFB9
:10161000FEE700BF80B489B000AF78603960002376
:10162000FB6100233B610023BB610023FB600023BF
:101630007B610023BB603B68DB7803F00F03FB6139
:101640003B68DB7803F01003002B05D03B689B78E8
:101650001A46FB691343FB613B681B88DBB2002B16
:1016600044D07B681B687B610023BB6138E00122AA
:10167000BB6902FA03F3FB603B681B881A46FB68F0
:1016800013403B613A69FB689A4226D1BB699B00D3
:10169000FB600F22FB6802FA03F3BB60BB68DB430D
:1016A0007A6913407B61FA69FB6802FA03F37A698D
:1016B00013437B613B68DB78282B05D10122BB6992
:1016C0009A407B685A6108E03B68DB78482B04D17C
:1016D0000122BB699A407B681A61BB690133BB6117
:1016E000BB69072BC3D97B687A691A603B681B8882
:1016F000FF2B46D97B685B687B610023BB613AE0C6
:10170000BB690833012202FA03F3FB603B681B88C4
:101710001A46FB6813403B613A69FB689A4227D13D
:10172000BB699B00FB600F22FB6802FA03F3BB60FE
:10173000BB68DB437A6913407B61FA69FB6802FA94
:1017400003F37A6913437B613B68DB78282B05D16F
:10175000BB69083301229A407B685A613B68DB7899
:10176000482B05D1BB69083301229A407B681A6176
:10177000BB690133BB61BB69072BC1D97B687A693F
:101780005A6000BF2437BD4680BC704780B485B026
:1017900000AF78600B467B800023FB737B689A6800
:1017A0007B881340002B02D00123FB7301E0002350
:1017B000FB73FB7B18461437BD4680BC704700BFE7
:1017C00080B483B000AF78600B467B807A887B68FA
:1017D0001A6100BF0C37BD4680BC704780B483B02F
:1017E00000AF78600B467B807A887B685A6100BFC7
:1017F0000C37BD4680BC704780B487B000AF7860BE
:101800000B46FB7000233B610023FB6000237B61E0
:101810000023BB607B68002B03DA2E4BDB697B6106
:1018200002E02C4B5B687B617B681B0C03F00F03B1
:10183000BB607B689BB23B617B6803F44013B3F5EC
:10184000401F0AD17B6923F070637B61214A214BE1
:101850005B6823F07063536021E07B6803F48013BE
:10186000002B0ED00322BB6802FA03F3FB60FB6877
:10187000DB437A6913407B617B6943F070637B6172
:101880000DE07B685B0D1B013A6902FA03F3DB4351
:101890007A6913407B617B6943F070637B61FB78FD
:1018A000002B08D07B685B0D1B013A6902FA03F339
:1018B0007A6913437B617B68002B03DA054A7B69F5
:1018C000D36102E0034A7B69536000BF1C37BD4609
:1018D00080BC70470000014080B500AF01210420AA
:1018E00001F05EF90121082001F05AF901210120DF
:1018F00001F056F901210248FFF77EFF00BF80BDCD
:101900000002300080B584B002AF374B00221A606D
:10191000364B00221A8004F0ADF8FFF7DDFF0021FE
:101920000A2003F001F90246314B1A6000210A2017
:1019300003F0FAF802462F4B1A6000210A2003F048
:10194000F3F802462C4B1A6000210A2003F0ECF851
:1019500002462A4B1A60002210210A2003F084F864
:101960000246274B1A60002206210A2003F07CF869
:101970000246244B1A60002204210A2003F074F866
:101980000246214B1A600023019308230093002391
:101990004FF480721D491E4801F0E0F900230193C5
:1019A0000723009300234FF480721A491A4801F06C
:1019B000D5F9002301930823009300234FF480728C
:1019C0001649174801F0CAF9164B019308230093F2
:1019D000002380221449154801F0C0F901F0BEFB34
:1019E0000023FB71FEE700BFC43D0020E03D002066
:1019F000F43D0020CC3D0020DC3D0020D03D002007
:101A0000E43D0020BC3D0020F03D0020686E000851
:101A1000390900087C6E00087D230008946E0008D8
:101A2000E1660008D83D0020A86E0008B95D0008F6
:101A300080B400AF00BFBD4680BC704780B400AF2B
:101A4000FEE700BF80B483B000AF78603960FEE786
:101A500080B400AF00BFBD4680BC704780B584B085
:101A600002AF00237B6000F0CFFA114B1B68002B04
:101A70000BD0104B01930223009300234FF400720C
:101A80000D490E4801F06AF978607B68002B09D196
:101A90004FF0500383F31188BFF36F8FBFF34F8F65
:101AA0003B60FEE77B6818460837BD4680BD00BF37
:101AB0007C00002080000020B86E0008F11B0008A8
:101AC00080B58AB000AFF860B9607A603B600023EF
:101AD0007B62FB68002B09D14FF0500383F3118820
:101AE000BFF36F8FBFF34F8F3B62FEE7194B1B684D
:101AF000002B2AD0BB687B617B68BB61FB68FB6104
:101B0000BB68052B18DC01F055FF0346022B09D1F9
:101B1000104B186807F1140100233A6B03F036F8F4
:101B2000786212E00B4B186807F1140100230022C1
:101B300003F02CF8786208E0064B186807F11401EE
:101B400000233A6803F01CF978627B6A184628374C
:101B5000BD4680BD7C00002080B588B002AF7860B3
:101B60003960224B1B68DB68DB687B617B6904336F
:101B7000184602F0FFFD7B6993F8283003F0040358
:101B8000002B21D07B699A697B68D1187B683A6801
:101B9000786900F0CFF80346002B1ED00023009395
:101BA00000237A6800217869FFF78AFF38613B6972
:101BB000002B12D14FF0500383F31188BFF36F8FC6
:101BC000BFF34F8FFB60FEE77B6993F8283023F06B
:101BD0000103DAB27B6983F828207B691B6A786984
:101BE000984700BF1837BD4680BD00BF7400002075
:101BF00080B584B000AF786007F10803184600F0A4
:101C000057F8F860BB681946F86800F003F800F070
:101C1000D3F8F1E780B584B000AF7860396001F0A7
:101C2000E9FA07F10803184600F064F8F860BB68A9
:101C3000002B30D13B68002B0AD17A68FB689A42AE
:101C400006D801F0E5FAF9687868FFF785FF24E027
:101C50003B68002B08D0134B1B681B68002B01D17D
:101C6000012300E000233B600F4B18687A68FB6893
:101C7000D31A3A68194603F0D5FC01F0C9FA0346B5
:101C8000002B0AD1094B4FF080521A60BFF34F8FDF
:101C9000BFF36F8F01E001F0BBFA00BF1037BD4604
:101CA00080BD00BF780000207C00002004ED00E033
:101CB00080B485B000AF78600D4B1B681B68002BAB
:101CC00001D1012200E000227B681A607B681B685A
:101CD000002B05D1064B1B68DB681B68FB6001E02D
:101CE0000023FB60FB6818461437BD4680BC704774
:101CF0007400002080B584B000AF786001F024FB50
:101D0000F8600B4B1B68FA689A4205D200F018F98C
:101D10007B6801221A6002E07B6800221A60044A94
:101D2000FB681360FB6818461037BD4680BD00BFD6
:101D30008400002080B586B000AFF860B9607A609A
:101D40003B6000237B61FB68BA685A60FB68FA68F5
:101D50001A61BA687B689A4212D87A683B68D21ACC
:101D6000FB689B699A4202D301237B611BE0104B05
:101D70001A68FB6804331946104602F0C3FC12E0EF
:101D80007A683B689A4206D2BA683B689A4202D3A4
:101D900001237B6107E0074B1A68FB68043319468F
:101DA000104602F0AFFC7B6918461837BD4680BD6F
:101DB000780000207400002080B58CB002AFACE049
:101DC000BB68002BC0F2A9803B697B627B6A5B69C0
:101DD000002B04D07B6A0433184602F0CBFC3B1D79
:101DE0001846FFF787FF3862BB68092B00F2948022
:101DF00001A252F823F000BF211E0008211E000896
:101E0000211E0008931E0008A71E0008EF1E0008F0
:101E1000211E0008211E0008931E0008A71E0008AE
:101E20007B6A93F8283043F00103DAB27B6A83F8C7
:101E30002820FA687B6A9B69D118FB683A6A786A3D
:101E4000FFF778FF0346002B67D07B6A1B6A786A2E
:101E500098477B6A93F8283003F00403002B5CD08A
:101E6000FA687B6A9B691A440023009300230021CF
:101E7000786AFFF725FEF861FB69002B4DD14FF022
:101E8000500383F31188BFF36F8FBFF34F8F7B61D4
:101E9000FEE77B6A93F8283023F00103DAB27B6A0D
:101EA00083F8282039E07B6A93F8283043F0010357
:101EB000DAB27B6A83F82820FA687B6A9A617B6AC7
:101EC0009B69002B09D14FF0500383F31188BFF3B6
:101ED0006F8FBFF34F8FBB61FEE77B6A9A693B6AE6
:101EE000D1183B6A3A6A786AFFF724FF15E07B6AEB
:101EF00093F8283003F00203002B03D1786A04F032
:101F00003BFE0AE07B6A93F8283023F00103DAB243
:101F10007B6A83F8282000E000BF084B1B6807F1AC
:101F200008010022184603F049F80346002B7FF40D
:101F300047AF00BF2837BD4680BD00BF7C000020F2
:101F400080B588B002AF47E02D4B1B68DB681B688B
:101F50007B612B4B1B68DB68DB683B613B690433AF
:101F6000184602F007FC3B691B6A386998473B69D1
:101F700093F8283003F00403002B2DD03B699A69B5
:101F80007B691344FB60FA687B699A420ED93B690E
:101F9000FA685A603B693A691A61194B1A683B69D9
:101FA00004331946104602F0ADFB15E00023009300
:101FB00000237A6900213869FFF782FDB860BB68A9
:101FC000002B09D14FF0500383F31188BFF36F8FBB
:101FD000BFF34F8F3B60FEE7094B1B681B68002B6C
:101FE000B2D1074B1B687B60064B1B68044A136029
:101FF000044A7B68136000BF1837BD4680BD00BF30
:10200000740000207800002080B500AF03F03CFC95
:10201000124B1B68002B1DD1114802F023FB114805
:1020200002F020FB104B0E4A1A60104B0D4A1A604A
:1020300000220C210A2002F017FD0246074B1A600D
:10204000064B1B68002B05D0044B1B68084918463B
:1020500003F0C0FA03F046FC00BF80BD7C00002006
:102060004C00002060000020740000207800002058
:10207000C06E000880B582B000AF0121082000F0DA
:102080008FFD0121012000F08BFD01210420FFF7CD
:10209000B3FB1823FB714023BB800223BB713B1DA4
:1020A00019460848FFF7B6FA0423FB718023BB806A
:1020B0003B1D19460348FFF7ADFA00BF0837BD4680
:1020C00080BD00BF000C014080B584B000AF01218D
:1020D0004FF4804000F064FD3B46184602F01CF9C6
:1020E0004FF416533B6000233B810023FB803B46AB
:1020F00019460A4802F056F801224021074802F02A
:1021000047F901228021054802F042F901210348E4
:1021100002F01EF900BF1037BD4680BD00380140F7
:1021200080B58EB000AF786039600121012000F0E9
:1021300019FD0223BB6100237B6100237B637B6865
:102140003B610023BB6280233B620023FB61364B73
:10215000FB6000237B622023FB624FF400533B6350
:102160004FF4407003F034FE0F233B7208237B7260
:102170000123FB7207F10803184603F03BFE07F149
:102180000C031946294803F06BFD022003F0E0FD23
:102190004FF4003003F0DCFD01220221234803F05C
:1021A000B9FD0121214803F099FD0223BB611023F1
:1021B0007B6100237B633B683B610023BB62802320
:1021C0003B62194BFB6000237B622023FB624FF4D0
:1021D00000533B634FF4407003F0FAFD0E233B7253
:1021E00008237B720123FB7207F10803184603F0F2
:1021F00001FE07F10C0319460D4803F031FD0220E2
:1022000003F0A6FD4FF4005003F0A2FD01220221CD
:10221000074803F07FFD0021054803F05FFD00BF84
:102220003837BD4680BD00BF043801405800024029
:102230004400024080B58EB000AF78600B46FB7062
:10224000194803F051FCFB78BB6100237B6100233C
:102250007B637B683B610023BB6280233B6200237E
:10226000FB61124BFB6000237B622023FB624FF477
:1022700000533B6307F10C0319460B4803F0F0FCD5
:10228000022003F065FD4FF4003003F061FD0122F0
:102290000221054803F03EFD0121034803F01EFD25
:1022A00000BF3837BD4680BD5800024004380140A9
:1022B00080B487B000AF78603960FF23FB750023DE
:1022C0003B6121E07A683B6913441A78FB7D5340F7
:1022D000FB750023FB6011E097F91730002B07DA3C
:1022E000FB7D5B005BB283F031035BB2FB7502E008
:1022F000FB7D5B00FB75FB680133FB60FB68072B14
:10230000EAD93B6901333B613A693B689A42D9D3C8
:10231000FB7D18461C37BD4680BC704780B500AFBA
:10232000044B186800230022002102F02FFC00BF9C
:1023300080BD00BFF43D002080B582B000AF002317
:102340007B600C4B1B683A1D1146184602F0ACFD31
:102350007B68012B0AD17B68002B07D0064B4FF01E
:1023600080521A60BFF34F8FBFF36F8F00BF0837E3
:10237000BD4680BDF43D002004ED00E090B58FB077
:1023800000AF786000F03EF907F10C0207F110038E
:1023900011461846FFF7C4FEFFF76CFEFFF794FEE8
:1023A00002F01AF802F03AF8434B1B684FF0FF3185
:1023B000184602F0DFFE7C7C07F11003012118466D
:1023C000FFF776FF03469C4267D1B0233B7307F1CA
:1023D0000C0301211846FFF76BFF03467B730120B6
:1023E00000F088FE0121354803F078FC3B7C033B7C
:1023F000052BD9D801A252F823F000BF25240008EC
:10240000A92300082B24000815240008A92300088C
:10241000A92300082A4B186800230022002102F09B
:10242000B5FB48E0FFF77AFF45E007F11003142100
:102430001846FFF7FFFE204B1B684FF47A711846D1
:1024400002F098FE0346012B1FD101211B4803F027
:1024500045FC0A2000F04EFE07F1100207F12401AE
:1024600007F12803184600F031F8164B186807F1F9
:1024700028010023002202F089FB134B186807F1A2
:1024800024010023002202F081FB07F11003022146
:102490001846FFF7CFFE00BF0DE0D0233B7307F1D6
:1024A0000C0301211846FFF703FF03467B7301214C
:1024B000024803F013FC77E7D03D002044000240BF
:1024C000CC3D0020E43D0020F03D002080B485B0EC
:1024D00000AFF860B9607A607B681B781A467B6849
:1024E00001331B781B0213431A46FB681A607B6892
:1024F00003331B781AB27B6804331B781B021BB2B0
:1025000013431BB29AB2FB681A817B6806331B78AF
:102510001AB27B6807331B781B021BB213431BB232
:102520009AB2FB685A817B685A7AFB681A737B6897
:102530000B331B781AB27B680C331B781B021BB25F
:1025400013431BB29AB2FB68DA817B680E331B78A7
:102550001AB27B680F331B781B021BB213431BB2EA
:102560009AB2BB681A807B6811331B781AB27B68F9
:1025700012331B781B021BB213431BB29AB2BB6807
:102580005A8000BF1437BD4680BC704780B582B00A
:1025900000AF00237B60104B1B683A1D11461846A4
:1025A00002F082FC7B68012B0AD17B68002B07D0EC
:1025B0000A4B4FF080521A60BFF34F8FBFF36F8FFB
:1025C000022003F0C5FB4FF4003003F0C1FB00BF55
:1025D0000837BD4680BD00BFD03D002004ED00E0BF
:1025E00080B500AF0021064803F078FB022003F01D
:1025F000AFFB4FF4005003F0ABFB00BF80BD00BF4A
:102600004400024080B582B000AF0121042000F0F8
:10261000C7FA4823FB710223BB710923BB803B1D12
:1026200019461F48FEF7F6FF0121012000F0B8FA15
:102630004FF4FA7000F05EFD1A4A1A4B9B6823F4BF
:10264000704323F00F039360174A174BDB6843F086
:102650000903D360144B09225A61134A124B1B68B9
:1026600043F0090313604FF4407003F0B1FB0623FD
:102670003B7009237B700123FB703B46184603F037
:10268000B9FB09233B7009237B700123FB703B4698
:10269000184603F0AFFB00BF0837BD4680BD00BF42
:1026A00000080140000001400004014080B582B0F4
:1026B00000AF01211948FFF769F80346002B22D12A
:1026C000174A174B1B6823F001031360144A144B7D
:1026D0001B6823F00803136000237B60114B1B6809
:1026E0003A1D1146184602F0DFFB7B68012B0AD128
:1026F0007B68002B07D00C4B4FF080521A60BFF361
:102700004F8FBFF36F8F012000F01AFB082000F0FD
:1027100017FB00BF0837BD4680BD00BF0008014061
:1027200000040140CC3D002004ED00E080B500AF86
:1027300008210E48FFF72AF80346002B0DD10C4A5A
:102740000B4B1B6823F008031360094A084B1B68F6
:1027500023F001031360FFF7EFFD082000F0F0FA0B
:10276000012000F0EDFA00BF80BD00BF000801406D
:102770000004014080B400AF134A134B1B6843F0C0
:10278000010313601049104B5A68104B13404B6003
:102790000D4A0D4B1B6823F0847323F480331360C0
:1027A000094A094B1B6823F480231360064A064B31
:1027B0005B6823F4FE035360034B4FF41F029A60DF
:1027C00000BFBD4680BC7047001002400000FFF80B
:1027D00080B483B000AF7860134A134B1B6823F4B6
:1027E00080331360104A104B1B6823F4802313605E
:1027F0007B68B3F5803F03D0B3F5802F07D00DE0A1
:10280000094A094B1B6843F48033136006E0064A0B
:10281000054B1B6843F4A023136000BF00BF0C37B7
:10282000BD4680BC704700BF0010024080B485B038
:1028300000AF786039600023FB600A4B5B68FB6087
:10284000FB6823F47C13FB607A683B681343FA68E7
:102850001343FB60034AFB68536000BF1437BD4657
:1028600080BC70470010024080B483B000AF0346C4
:10287000FB71044AFB79136000BF0C37BD4680BC76
:10288000704700BF6000424280B485B000AF7860FE
:102890000023FB60094B5B68FB60FB6823F00303CC
:1028A000FB60FA687B681343FB60044AFB68536073
:1028B00000BF1437BD4680BC704700BF0010024007
:1028C00080B485B000AF78600023FB60094B5B6883
:1028D000FB60FB6823F0F003FB60FA687B6813433E
:1028E000FB60044AFB68536000BF1437BD4680BCE0
:1028F000704700BF0010024080B485B000AF786020
:102900000023FB60094B5B68FB60FB6823F4E0631A
:10291000FB60FA687B681343FB60044AFB68536002
:1029200000BF1437BD4680BC704700BF0010024096
:1029300080B485B000AF78600023FB60094B5B6812
:10294000FB60FB6823F46053FB607B68DB00FA6884
:102950001343FB60034AFB68536000BF1437BD4656
:1029600080BC70470010024080B485B000AF786032
:102970000023FB60094B5B68FB60FB6823F440436A
:10298000FB60FA687B681343FB60044AFB68536092
:1029900000BF1437BD4680BC704700BF0010024026
:1029A00080B483B000AF0346FB71044AFB79136027
:1029B00000BF0C37BD4680BC704700BF8004424258
:1029C00080B483B000AF78600549054B1A6A7B6814
:1029D00013430B6200BF0C37BD4680BC704700BF7D
:1029E0000010024080B483B000AF0346FB71044A7C
:1029F000FB79136000BF0C37BD4680BC704700BF39
:102A00003C04424280B487B000AF786000237B6111
:102A100000233B610023FB600023BB604C4B5B68E1
:102A200003F00C037B617B69042B07D0082B09D0D2
:102A3000002B33D17B68474A1A6033E07B68454AF4
:102A40001A602FE0424B5B6803F470133B61404B0C
:102A50005B6803F48033FB603B699B0C02333B6192
:102A6000FB68002B06D13B693B4A02FB03F27B6803
:102A70001A6017E0364B5B6803F40033002B06D076
:102A80003B69354A02FB03F27B681A600AE03B6946
:102A9000304A02FB03F27B681A6003E07B682D4A30
:102AA0001A6000BF2A4B5B6803F0F0037B617B690F
:102AB0001B097B61294A7B6913441B78DBB2BB602D
:102AC0007B681A68BB68DA407B685A60204B5B6899
:102AD00003F4E0637B617B691B0A7B611F4A7B69AE
:102AE00013441B78DBB2BB607B685A68BB68DA4072
:102AF0007B689A60164B5B6803F460537B617B696B
:102B0000DB0A7B61154A7B6913441B78DBB2BB602F
:102B10007B685A68BB68DA407B68DA600C4B5B689C
:102B200003F440437B617B699B0B7B610C4A7B69AF
:102B300013441B78DBB2BB607B68DA68BB68B2FB0E
:102B4000F3F27B681A6100BF1C37BD4680BC70473A
:102B50000010024000127A0000093D001800002019
:102B60002800002080B483B000AF78600B46FB7073
:102B7000FB78002B06D00949084B5A697B68134340
:102B80004B6106E00549054B5A697B68DB431340FE
:102B90004B6100BF0C37BD4680BC7047001002403F
:102BA00080B483B000AF78600B46FB70FB78002BDD
:102BB00006D00949084B9A697B6813438B6106E08C
:102BC0000549054B9A697B68DB4313408B6100BF65
:102BD0000C37BD4680BC70470010024080B483B003
:102BE00000AF78600B46FB70FB78002B06D00949DC
:102BF000084BDA697B681343CB6106E00549054B56
:102C0000DA697B68DB431340CB6100BF0C37BD46FC
:102C100080BC70470010024080B500AF3F4803F011
:102C2000EDFA03463E4A93420ED03D4A934205D800
:102C3000102B4ED0B3F1021F38D061E0394A9342D5
:102C400012D0394A93425BD1384B1B781A46384B25
:102C50009B5C1946314803F095FA344B1B780133DD
:102C6000DAB2324B1A7052E02C4B9B8A2B4B1B8BE7
:102C70002E4B1B781A462E4B9B5C1946274803F0B7
:102C800081FA2A4B1B780133DAB2284B1A700122E1
:102C90004FF48061214803F051FA26491F4803F0A0
:102CA000CFFA24491D4803F00DFB30E01B4B9B8AF3
:102CB0001A4B1B8B01224FF48061184803F03EFA37
:102CC0001C49164803F0BCFA1A49144803F0FAFAF2
:102CD0001DE0124B9B8A114B1B8B00224FF480612D
:102CE0000E4803F02BFA01210C4803F0A7F9124912
:102CF0000A4803F0A5FA1149084803F0E3FA06E090
:102D000000224FF4C061054803F018FA00BF4FF4E9
:102D10000071024803F0D6FA00BF80BD00580040A1
:102D20008000060082000600840006009500002056
:102D30008C000020020000021000001010000002B1
:102D400080B483B000AF7860034A7B68536100BFF2
:102D50000C37BD4680BC70470004014080B58CB084
:102D600004AFF860B9603B601346FB80FB889B00B2
:102D7000184603F06FFE78617B69002B0ED0582057
:102D800003F068FEF861FB69002B03D0FB697A69E8
:102D90001A6305E0786903F0EFFE01E00023FB61B0
:102DA000FB69002B13D0FA8800230393FB6902937D
:102DB000FB6A0193BB6A00933B68B968F86800F04E
:102DC0000FF8F86900F09AF80123BB6102E04FF0B8
:102DD000FF33BB61BB6918462037BD4680BD00BFCD
:102DE00080B588B000AFF860B9607A603B603B6B3B
:102DF000186B7B689B001A46A52103F0E7FF3B6B2D
:102E00001A6B7B6803F18043013B9B001344BB6159
:102E1000BB6923F00703BB61BB6903F00703002B09
:102E200009D04FF0500383F31188BFF36F8FBFF3C6
:102E30004F8F7B61FEE7BB68002B1FD00023FB6137
:102E400012E0BA68FB69134419783A6BFB691344C2
:102E500034330A461A70BA68FB6913441B78002B96
:102E600006D0FB690133FB61FB69092BE9D900E05E
:102E700000BF3B6B002283F83D2003E03B6B002248
:102E800083F83420BB6A042B01D90423BB623B6B5B
:102E9000BA6ADA623B6BBA6A9A643B6B0022DA6404
:102EA0003B6B0433184601F0FDFB3B6B18331846AF
:102EB00001F0F8FB3B6B3A6B1A61BB6AC3F1050288
:102EC0003B6B9A613B6B3A6B5A623B6B00221A6513
:102ED0003B6B002283F854203A68F968B86902F025
:102EE000D5FB02463B6B1A60FB6A002B02D0FB6AE3
:102EF0003A6B1A6000BF2037BD4680BD80B582B0F6
:102F000000AF786002F0C0FC2C4B1B6801332B4AE9
:102F100013602B4B1B68002B09D1294A7B68136077
:102F2000264B1B68012B10D100F0A8FC0DE0254BAF
:102F30001B68002B09D1224B1B68DA6A7B68DB6AAD
:102F40009A4202D81E4A7B6813601F4B1B680133EC
:102F50001D4A13601C4B1A687B681A647B68DB6A25
:102F600001229A40194B1B681343184A13607B686F
:102F7000DA6A13469B0013449B00154A1A447B6887
:102F800004331946104601F099FB02F0ABFC0D4BDF
:102F90001B68002B0ED00A4B1B68DA6A7B68DB6A61
:102FA0009A4207D20B4B4FF080521A60BFF34F8FFB
:102FB000BFF36F8F00BF0837BD4680BD7001002092
:102FC000980000207C0100208C0100207801002066
:102FD0009C00002004ED00E080B584B000AF786074
:102FE00002F052FC7B68002B02D1384B1B6800E0DA
:102FF0007B68FB60FB680433184601F0BBFB0346AB
:10300000002B15D1FB68DA6A314913469B00134443
:103010009B000B441B68002B0AD1FB68DB6A012272
:1030200002FA03F3DA432B4B1B681340294A13605F
:10303000FB689B6A002B04D0FB681833184601F02C
:1030400099FB254B1B680133234A13601F4B1B68F8
:10305000FA689A420BD1FB68043319461F4801F005
:103060002DFB1F4B1B6801331D4A136009E01D4BEC
:103070001B68013B1B4A1360F86800F06BFC00F012
:1030800079FC02F02FFC184B1B68002B1AD00F4B59
:103090001B68FA689A4215D1144B1B68002B09D0A3
:1030A0004FF0500383F31188BFF36F8FBFF34F8F3F
:1030B000BB60FEE70E4B4FF080521A60BFF34F8F9C
:1030C000BFF36F8F00BF1037BD4680BD9800002052
:1030D0009C000020780100208C0100204401002089
:1030E00058010020700100207C0100209801002080
:1030F00004ED00E080B584B000AF78600023FB6091
:103100007B68002B16D0134B1B68002B09D04FF0A7
:10311000500383F31188BFF36F8FBFF34F8FBB60F2
:10312000FEE700F067F80021786800F011FE00F07B
:103130006FF8F860FB68002B07D1074B4FF0805207
:103140001A60BFF34F8FBFF36F8F00BF1037BD46BC
:1031500080BD00BF9801002004ED00E080B586B07E
:1031600002AF1E4B01930023009300234FF48072A3
:103170001B491C48FFF7F2FDF860FB68012B02D1E8
:10318000FEF76CFCF860FB68012B15D14FF0500383
:1031900083F31188BFF36F8FBFF34F8F7B60124BA8
:1031A0004FF0FF321A60114B01221A60104B0022BF
:1031B0001A6002F0E9FA0DE0FB68B3F1FF3F09D1B4
:1031C0004FF0500383F31188BFF36F8FBFF34F8F1E
:1031D000BB60FEE700BF1037BD4680BD94010020F4
:1031E000C86E000849380008900100207C010020CA
:1031F0007401002080B400AF044B1B680133034A04
:10320000136000BFBD4680BC704700BF980100201E
:1032100080B584B000AF0023FB600023BB60414B4E
:103220001B68002B09D14FF0500383F31188BFF3C3
:103230006F8FBFF34F8F3B60FEE702F025FB394BEA
:103240001B68013B374A1360364B1B68002B61D16A
:10325000354B1B68002B5DD02EE0344BDB68DB6800
:10326000FB60FB681833184601F084FAFB680433EE
:10327000184601F07FFAFB68DB6A01229A402C4B6A
:103280001B6813432A4A1360FB68DA6A13469B00E3
:1032900013449B00274A1A44FB680433194610461E
:1032A00001F00CFAFB68DA6A234B1B68DB6A9A426E
:1032B00002D3224B01221A601C4B1B68002BCCD17D
:1032C000FB68002B01D000F055FB1D4B1B687B6099
:1032D0007B68002B10D000F045F80346002B02D08D
:1032E000164B01221A607B68013B7B607B68002BD8
:1032F000F1D1134B00221A60104B1B68002B09D030
:103300000123BB600F4B4FF080521A60BFF34F8F09
:10331000BFF36F8F02F0E6FABB6818461037BD4660
:1033200080BD00BF98010020700100203001002006
:10333000780100209C0000209800002084010020DB
:103340008001002004ED00E080B483B000AF044BA6
:103350001B687B607B6818460C37BD4680BC704795
:103360007401002080B586B000AF00237B61524B12
:103370001B68002B40F08D80504B1B6801333B6174
:103380004E4A3B6913603B69002B1FD14C4B1B68B5
:103390001B68002B09D04FF0500383F31188BFF353
:1033A0006F8FBFF34F8F3B60FEE7454B1B68FB60A1
:1033B000444B1B68424A1360424AFB681360424B0D
:1033C0001B680133404A136000F0D4FA3F4B1B687E
:1033D0003A699A4248D33A4B1B681B68002B04D1C8
:1033E0003A4B4FF0FF321A603EE0354B1B68DB680A
:1033F000DB68BB60BB685B687B603A697B689A424C
:1034000003D2324A7B6813602EE0BB68043318464F
:1034100001F0B0F9BB689B6A002B04D0BB6818337D
:10342000184601F0A7F9BB68DB6A01229A40284BD5
:103430001B681343264A1360BB68DA6A13469B0075
:1034400013449B00234A1A44BB68043319461046B0
:1034500001F034F9BB68DA6A1F4B1B68DB6A9A42D9
:10346000B9D301237B61B6E71B4B1B68DA6A1949A4
:1034700013469B0013449B000B441B68012B01D98E
:1034800001237B61154B1B68002B09D1FEF7E0FA85
:1034900006E0124B1B680133104A1360FEF7D8FA9E
:1034A0000F4B1B68002B01D001237B617B69184601
:1034B0001837BD4680BD00BF980100207401002070
:1034C000280100202C01002088010020900100200C
:1034D000780100209C00002098000020800100203E
:1034E0008401002080B588B000AF394B1B68002BE9
:1034F00003D0384B01221A6065E0364B00221A6077
:10350000354B1B681B6BFB614FF0A533BB61FB693F
:103510001A68BB699A4211D1FB6904331A68BB6906
:103520009A420BD1FB6908331A68BB699A4205D1EC
:10353000FB690C331A68BB699A4208D0264B1A689B
:10354000254B1B68343319461046FEF77BFA234B94
:103550001B68BB60BB68B3FA83F3FB71FB79C3F1F3
:103560001F033B611E493A6913469B0013449B00AD
:103570000B441B68002B09D14FF0500383F31188D3
:10358000BFF36F8FBFF34F8F7B61FEE73A6913463E
:103590009B0013449B00124A1344FB60FB685B686A
:1035A0005A68FB685A60FB685A68FB6808339A429D
:1035B00004D1FB685B685A68FB685A60FB685B680B
:1035C000DB68054A136000BF2037BD4680BD00BFE1
:1035D000980100208401002098000020780100203C
:1035E0009C00002080B584B000AF786039607B68B3
:1035F000002B09D14FF0500383F31188BFF36F8F75
:10360000BFF34F8FFB60FEE7074B1B68183319466B
:10361000786801F077F80121386800F099FB00BF65
:103620001037BD4680BD00BF9800002080B586B031
:1036300000AFF860B9607A60FB68002B09D14FF0E9
:10364000500383F31188BFF36F8FBFF34F8F7B61FC
:10365000FEE70A4B1B6818331946F86801F02EF88C
:103660007B68002B02D04FF0FF33BB607968B868ED
:1036700000F06EFB00BF1837BD4680BD98000020EB
:1036800080B586B000AF78607B68DB68DB683B6143
:103690003B69002B09D14FF0500383F31188BFF32E
:1036A0006F8FBFF34F8FFB60FEE73B6918331846FF
:1036B00001F060F81D4B1B68002B1CD13B690433E3
:1036C000184601F057F83B69DB6A01229A40184B13
:1036D0001B681343164A13603B69DA6A13469B0062
:1036E00013449B00134A1A443B690433194610469D
:1036F00000F0E4FF05E03B69183319460E4800F07E
:10370000DDFF3B69DA6A0D4B1B68DB6A9A4205D91B
:1037100001237B610A4B01221A6001E000237B61D7
:103720007B6918461837BD4680BD00BF9801002050
:10373000780100209C00002030010020980000202B
:103740008401002080B483B000AF7860064B1A6813
:103750007B681A60054B1A687B685A6000BF0C379B
:10376000BD4680BC704700BF880100207401002066
:1037700080B588B000AF786039607B68002B09D1D4
:103780004FF0500383F31188BFF36F8FBFF34F8F58
:10379000FB60FEE73B68002B09D14FF0500383F339
:1037A0001188BFF36F8FBFF34F8F3B61FEE702F0CD
:1037B0006BF81D4B1B68BB617B685B68BA69D31AE9
:1037C0007B613B681B68B3F1FF3F02D10023FB61C3
:1037D00023E07B681A68154B1B689A4207D07B6808
:1037E0005A68BB699A4202D80123FB6115E03B6825
:1037F0001A687B699A420BD93B681A687B69D21AAE
:103800003B681A607868FFF79DFF0023FB6104E0C6
:103810003B6800221A600123FB6102F063F8FB6938
:1038200018462037BD4680BD740100208801002065
:1038300080B400AF034B01221A6000BFBD4680BCBC
:10384000704700BF8401002080B582B000AF78606F
:1038500000F054F8074B1B68012B07D9064B4FF0BB
:1038600080521A60BFF34F8FBFF36F8FFEF7E0F8FF
:10387000EEE700BF9C00002004ED00E080B582B0C0
:1038800000AF00237B600CE07A6813469B00134472
:103890009B00124A1344184600F0E4FE7B68013393
:1038A0007B607B68042BEFD90D4800F0DBFE0D48F0
:1038B00000F0D8FE0C4800F0D5FE0C4800F0D2FE17
:1038C0000B4800F0CFFE0B4B054A1A600A4B054A25
:1038D0001A6000BF0837BD4680BD00BF9C000020B5
:1038E00000010020140100203001002044010020CC
:1038F0005C010020280100202C01002080B582B04E
:1039000000AF19E001F0C0FF0F4BDB68DB687B60A4
:103910007B680433184600F02DFF0C4B1B68013BFD
:103920000A4A13600A4B1B68013B094A136001F005
:10393000D9FF786800F00EF8054B1B68002BE1D129
:1039400000BF0837BD4680BD440100207001002043
:103950005801002080B582B000AF78607B681B6B97
:10396000184603F009F9786803F006F900BF083734
:10397000BD4680BD80B483B000AF0C4B1B681B6894
:10398000002B04D10A4B4FF0FF321A6008E0074BBE
:103990001B68DB68DB687B607B685B68044A1360DC
:1039A00000BF0C37BD4680BC704700BF2801002017
:1039B0009001002080B483B000AF0B4B1B68002B3C
:1039C00002D101237B6008E0084B1B68002B02D169
:1039D00002237B6001E000237B607B6818460C3784
:1039E000BD4680BC704700BF7C01002098010020CC
:1039F00080B584B000AF78607B68BB600023FB605B
:103A00007B68002B69D0BB68DA6A364B1B68DB6ABF
:103A10009A4259D2BB689B69002B06DB314B1B686D
:103A2000DB6AC3F10502BB689A61BB685969BB6870
:103A3000DA6A13469B0013449B002B4A13449942B5
:103A40003AD1BB680433184600F094FE0346002BBD
:103A500015D1BB68DA6A244913469B0013449B00C6
:103A60000B441B68002B0AD1BB68DB6A012202FAF7
:103A700003F3DA431D4B1B6813401C4A1360194BB8
:103A80001B68DA6ABB68DA62BB68DB6A01229A40AB
:103A9000164B1B681343154A1360BB68DA6A13465A
:103AA0009B0013449B00104A1A44BB680433194618
:103AB000104600F003FE04E00A4B1B68DA6ABB689C
:103AC000DA620123FB6008E0BB689A6C054B1B6857
:103AD000DB6A9A4201D20123FB60FB68184610376B
:103AE000BD4680BD980000209C0000207801002089
:103AF00080B586B000AF78607B683B6100237B6156
:103B00007B68002B6CD0394B1B683A699A4209D00C
:103B10004FF0500383F31188BFF36F8FBFF34F8FC4
:103B2000BB60FEE73B69DB6C002B09D14FF0500313
:103B300083F31188BFF36F8FBFF34F8FFB60FEE7F6
:103B40003B69DB6C5A1E3B69DA643B69DA6A3B69A4
:103B50009B6C9A4244D03B69DB6C002B40D13B69A3
:103B60000433184600F006FE0346002B15D13B69CE
:103B7000DA6A1F4913469B0013449B000B441B68E1
:103B8000002B0AD13B69DB6A012202FA03F3DA4314
:103B9000184B1B681340174A13603B699A6C3B69CA
:103BA000DA623B69DB6AC3F105023B699A613B69F2
:103BB000DB6A01229A400F4B1B6813430D4A1360C6
:103BC0003B69DA6A13469B0013449B00084A1A4477
:103BD0003B6904331946104600F070FD01237B61F8
:103BE0007B6918461837BD4680BD00BF980000208D
:103BF0009C0000207801002080B588B000AF78607C
:103C000039607B68BB6101237B617B68002B00F01E
:103C10008180BB69DB6C002B09D14FF0500383F32B
:103C20001188BFF36F8FBFF34F8FBB60FEE7BB6997
:103C30009A6C3B689A4202D23B68FB6102E0BB6926
:103C40009B6CFB61BB69DA6AFB699A4262D0BB6913
:103C5000DA6C7B699A425DD1304B1B68BA699A4233
:103C600009D14FF0500383F31188BFF36F8FBFF377
:103C70004F8FFB60FEE7BB69DB6A3B61BB69FA699A
:103C8000DA62BB699B69002B04DBFB69C3F10502A7
:103C9000BB699A61BB6959693A6913469B00134431
:103CA0009B001F4A1344994234D1BB690433184620
:103CB00000F060FD0346002B15D1BB69DA6A184994
:103CC00013469B0013449B000B441B68002B0AD136
:103CD000BB69DB6A012202FA03F3DA43114B1B686A
:103CE0001340104A1360BB69DB6A01229A400D4BF6
:103CF0001B6813430B4A1360BB69DA6A13469B00C7
:103D000013449B00064A1A44BB6904331946104603
:103D100000F0D4FC00BF2037BD4680BD98000020D5
:103D20009C0000207801002080B400AF074B1B6886
:103D3000002B04D0054B1B68DA6C0132DA64034BAC
:103D40001B681846BD4680BC704700BF9800002025
:103D500080B584B000AF78603960294B1B68FB6088
:103D6000284B1B680433184600F004FD0346002B63
:103D70000BD1244B1B68DB6A012202FA03F3DA43FE
:103D8000214B1B681340204A13607B68B3F1FF3F4F
:103D90000AD13B68002B07D01A4B1B680433194625
:103DA0001A4800F08BFC26E0FA687B681344BB607D
:103DB000144B1B68BA685A60BA68FB689A4209D209
:103DC000134B1A680F4B1B6804331946104600F05A
:103DD00099FC10E00F4B1A680A4B1B680433194614
:103DE000104600F08FFC0C4B1B68BA689A4202D256
:103DF000094ABB68136000BF1037BD4680BD00BFD5
:103E00007401002098000020780100205C0100204F
:103E10002C010020280100209001002080B485B0F2
:103E200000AF786039600023FB600023FB727B6881
:103E30005B68FB60FB6823F4702323F48073FB60F2
:103E40003B681A683B681B791B021343FA681343EB
:103E5000FB607B68FA685A607B689B68FB60FA6865
:103E6000164B1340FB603B68DA683B689B681A435B
:103E70003B685B795B001343FA681343FB607B6824
:103E8000FA689A607B68DB6AFB60FB6823F4700366
:103E9000FB603B681B7C013BDAB2FB7A1343FB728D
:103EA000FB7A1B05FA681343FB607B68FA68DA62E9
:103EB00000BF1437BD4680BC704700BFFDF7F1FF5F
:103EC00080B483B000AF78600B46FB70FB78002BAA
:103ED00006D07B689B6843F001027B689A6005E02E
:103EE0007B689B6823F001027B689A6000BF0C37F7
:103EF000BD4680BC704700BF80B483B000AF78601F
:103F00007B689B6843F008027B689A6000BF0C37AF
:103F1000BD4680BC704700BF80B485B000AF7860FC
:103F20000023FB737B689B6803F00803002B02D01F
:103F30000123FB7301E00023FB73FB7B184614375E
:103F4000BD4680BC704700BF80B483B000AF7860CE
:103F50007B689B6843F004027B689A6000BF0C3763
:103F6000BD4680BC704700BF80B485B000AF7860AC
:103F70000023FB737B689B6803F00403002B02D0D3
:103F80000123FB7301E00023FB73FB7B184614370E
:103F9000BD4680BC704700BF80B483B000AF78607E
:103FA0000B46FB70FB78002B06D07B689B6843F4C4
:103FB000A0027B689A6005E07B689B6823F4A002FE
:103FC0007B689A6000BF0C37BD4680BC704700BF5D
:103FD00080B483B000AF78600B46FB70FB78002B99
:103FE00006D07B685B6843F480627B685A6005E0BA
:103FF0007B685B6823F480627B685A6000BF0C3783
:10400000BD4680BC704700BF80B483B000AF78600D
:104010000B46FB70FB78002B06D07B689B6843F453
:1040200002127B689A6005E07B689B6823F40212A9
:104030007B689A6000BF0C37BD4680BC704700BFEC
:1040400080B487B000AF7860084611461A46034630
:10405000FB700B46BB7013467B7000237B61002313
:104060003B610023FB60FB78092B23D97B68DB686D
:104070007B61FB78A3F10A0213465B00134407221D
:1040800002FA03F33B613B69DB437A6913407B61CE
:104090007978FB78A3F10A0213465B00134401FA16
:1040A00003F33B617A693B6913437B617B687A69FF
:1040B000DA601EE07B681B697B61FA7813465B005F
:1040C0001344072202FA03F33B613B69DB437A693D
:1040D00013407B617978FA7813465B00134401FA48
:1040E00003F33B617A693B6913437B617B687A69BF
:1040F0001A617B689B6B7B617B691B0D03F003037B
:10410000FB60FB68DBB2BA78D31ADBB20233DBB2F6
:104110001A4613469B0013441F2202FA03F33B6125
:104120003B69DB437A6913407B61FA78FB68DBB259
:10413000B978CB1ADBB20233DBB219460B469B00CF
:104140000B4402FA03F33B617A693B6913437B61D9
:104150007B687A699A6300BF1C37BD4680BC704794
:1041600080B485B000AF78600B46FB700023FB6025
:104170000023BB607B689B6BFB60FB6823F44013F0
:10418000FB60FB78013BBB60BB681B05FA6813430F
:10419000FB607B68FA689A6300BF1437BD4680BC39
:1041A000704700BF80B58CB000AF786039600023E5
:1041B000FB620023BB6200237B6200233B6200237F
:1041C000FB617B68FB617B681B8A9BB2FB62FA6ABE
:1041D0004CF6FF731340FB623B68DB881A46FB6AB0
:1041E0001343FB62FB6A9AB27B681A827B689B89E5
:1041F0009BB2FB62FA6A4EF6F3131340FB623B6814
:104200009A883B681B8913439AB23B685B891343C6
:104210009BB21A46FB6A1343FB62FB6A9AB27B6845
:104220009A817B689B8A9BB2FB62FA6A4FF6FF43D6
:104230001340FB623B689B891A46FB6A1343FB628F
:10424000FB6A9AB27B689A8207F108031846FEF768
:10425000D9FBFB692E4A934202D17B69BB6201E024
:104260003B69BB627B689B899BB21BB2002B0CDA5B
:10427000BA6A13469B0013449A001A443B681B68B1
:104280005B00B2FBF3F37B620BE0BA6A13469B0060
:1042900013449A001A443B681B689B00B2FBF3F37B
:1042A0007B627B6A1B4AA2FB03235B091B01FB6247
:1042B000FB6A1B09642202FB03F37A6AD31A3B628E
:1042C0007B689B899BB21BB2002B0CDA3B6ADB003C
:1042D0003233104AA2FB03235B0903F00703FA6A97
:1042E0001343FB620BE03B6A1B013233094AA2FB1A
:1042F00003235B0903F00F03FA6A1343FB62FB6AB3
:104300009AB27B681A8100BF3037BD4680BD00BFBE
:10431000003801401F85EB5180B483B000AF786056
:104320007B684FF416521A607B6800229A807B6883
:104330000022DA807B6800221A817B680C225A8175
:104340007B6800229A8100BF0C37BD4680BC704755
:1043500080B483B000AF78600B46FB70FB78002B15
:1043600008D07B689B899BB243F400539AB27B6868
:104370009A8107E07B689B899BB223F400539AB231
:104380007B689A8100BF0C37BD4680BC704700BF78
:1043900080B483B000AF78600B467B8013467B709F
:1043A0007B78002B08D07B689B8A9AB27B8813436A
:1043B0009AB27B689A8209E07B689B8A9AB27B8872
:1043C000DB439BB213409AB27B689A8200BF0C37E2
:1043D000BD4680BC704700BF80B582B000AF0121F0
:1043E0000820FEF7DDFB01210120FEF7D9FB0121AA
:1043F0000220FDF701FA1C23FB714FF44073BB80D0
:104400000323BB713B1D19460348FDF703F900BFA9
:104410000837BD4680BD00BF000C014080B586B0A6
:1044200000AF01214FF40010FEF7D8FB4FF480637A
:104430007B824FF48043BB82174BBB604BF6FF730C
:10444000FB810023BB8168233B824FF4407001F065
:10445000BFFC1F233B7108237B710123FB713B1DB4
:10446000184601F0C7FC01224FF400710B4801F01F
:1044700065FE07F108031946084801F01DFD0121FA
:10448000064801F0DBFD0121044801F0F7FD00BF03
:104490001837BD4680BD00BF801A0600005400409A
:1044A00098B500AF5149524801F0E0FE0346002B99
:1044B0001DD0504B1B681B78012B09D101224A21CA
:1044C0004B4801F07DFE01214B4801F007FC09E05B
:1044D000484B1B681B78002B04D100224A2144481A
:1044E00001F06EFE4149424801F0ECFE77E043499D
:1044F0003F4801F0BBFE0346002B0ED03D4B1B682E
:104500005B6803F108043A4801F04CFE034623704F
:104510003A49374801F0D6FE61E03949344801F0A4
:10452000A5FE0346002B11D0314B9B8A304B1B8BD1
:1045300033492F4801F0C6FE2E4B1B681B78002B19
:104540004DD136212A4801F01DFE48E02D4928486A
:1045500001F08CFE0346002B41D0264B1B681B78D4
:10456000002B2AD12849224801F080FE0346002B67
:104570001AD01F4B9B8A1E4B1B8B00224FF480616D
:104580001B4801F0DBFD1B4B1B6800221A70194B06
:104590001B6801225A700121154801F08FFD1A494C
:1045A000134801F08FFE1AE0124B1B6801221A70AB
:1045B00008210F4801F0E6FD11E00D4B9B8A0C4BE2
:1045C0001B8B01210A4801F079FD0A4B1B6801226F
:1045D0005A7000224FF48061054801F0AFFD4FF49E
:1045E0000071034801F06EFE00BF98BD010000029B
:1045F000005400409C010020800002404000000662
:1046000002000002800000060004000180B500AF37
:10461000114B9B8A104B1B8B00210F4801F06EFD44
:1046200001210D4801F04AFD0C4B1B6801225A7014
:1046300000224FF48061084801F080FD0021084805
:1046400001F04CFB022001F083FB4FF0007001F001
:104650007FFB00BF80BD00BF005400409C010020D4
:104660008000024080B483B000AF78607B6803F1C3
:1046700008027B685A607B684FF0FF329A607B6863
:1046800003F108027B68DA607B6803F108027B684B
:104690001A617B6800221A6000BF0C37BD4680BCDF
:1046A000704700BF80B483B000AF78607B680022A1
:1046B0001A6100BF0C37BD4680BC704780B485B01E
:1046C00000AF786039607B685B68FB603B68FA68C4
:1046D0005A60FB689A683B689A60FB689B683A6816
:1046E0005A60FB683A689A603B687A681A617B682E
:1046F0001B685A1C7B681A6000BF1437BD4680BC1B
:10470000704700BF80B485B000AF786039603B6807
:104710001B68BB60BB68B3F1FF3F03D17B681B69BB
:10472000FB600CE07B680833FB6002E0FB685B68C1
:10473000FB60FB685B681A68BB689A42F6D9FB6845
:104740005A683B685A603B685B683A689A603B68A5
:10475000FA689A60FB683A685A603B687A681A613E
:104760007B681B685A1C7B681A6000BF1437BD4603
:1047700080BC704780B485B000AF78607B681B69EF
:10478000FB607B685B687A6892689A607B689B686C
:104790007A6852685A60FB685A687B689A4203D10B
:1047A0007B689A68FB685A607B6800221A61FB6824
:1047B0001B685A1EFB681A60FB681B681846143792
:1047C000BD4680BC704700BF80B400AF044B054AB3
:1047D0005A60034B044A5A6000BFBD4680BC704714
:1047E0000020024023016745AB89EFCD80B400AFC4
:1047F000044A044B1B6943F08003136100BFBD46AC
:1048000080BC70470020024080B584B000AF786063
:104810000423FB734FF4302000F09CF80346FB7335
:10482000FB7B042B1BD1104A0F4B1B6943F0020387
:1048300013610D4A7B6853610B4A0B4B1B6943F0B4
:10484000400313614FF4302000F084F80346FB73FB
:104850000549054B1A6941F6FD7313400B61FB7B5B
:1048600018461037BD4680BD0020024080B584B098
:1048700000AF786039600423FB730023BB604FF402
:10488000005000F067F80346FB73FB7B042B30D12C
:104890001A4A1A4B1B6943F0010313617B683A689B
:1048A00092B21A804FF4005000F054F80346FB73A4
:1048B000FB7B042B16D17B680233BB60BB681A46B6
:1048C0003B681B0C9BB213804FF4005000F042F881
:1048D0000346FB730949094B1A6941F6FE731340FD
:1048E0000B6106E00549054B1A6941F6FE7313405A
:1048F0000B61FB7B18461037BD4680BD002002408F
:1049000080B483B000AF0423FB71114BDB6803F06C
:104910000103002B02D00123FB7113E00C4BDB6879
:1049200003F00403002B02D00223FB710AE0084BC2
:10493000DB6803F01003002B02D00323FB7101E0BE
:104940000423FB71FB7918460C37BD4680BC7047C9
:104950000020024080B584B000AF78600423FB7370
:10496000FFF7CEFF0346FB7306E0FFF7C9FF0346E0
:10497000FB737B68013B7B60FB7B012B02D17B6877
:10498000002BF2D17B68002B01D10523FB73FB7B4D
:1049900018461037BD4680BD80B584B000AF786042
:1049A00039607B68FB60FB68002B09D14FF0500336
:1049B00083F31188BFF36F8FBFF34F8FBB60FEE7A8
:1049C00000F062FFFB681A68FB68DB6BF968096C32
:1049D00001FB03F31A44FB689A60FB6800229A63A8
:1049E000FB681A68FB685A60FB681A68FB68DB6B37
:1049F000013BF968096C01FB03F31A44FB68DA60B8
:104A0000FB68FF2283F84420FB68FF2283F84520DF
:104A10003B68002B14D1FB681B69002B1AD0FB6884
:104A200010331846FEF72CFE0346002B12D00D4B18
:104A30004FF080521A60BFF34F8FBFF36F8F09E0C2
:104A4000FB6810331846FFF70DFEFB682433184649
:104A5000FFF708FE00F046FF012318461037BD4659
:104A600080BD00BF04ED00E080B58AB002AFF86001
:104A7000B9601346FB71FB68002B09D14FF050035E
:104A800083F31188BFF36F8FBFF34F8F3B61FEE756
:104A9000BB68002B02D10023FB6104E0FB68BA680D
:104AA00002FB03F3FB61FB695033184601F0D2FFB0
:104AB000B861BB69002B0DD0BB697B617B6950334A
:104AC0007B61FA79BB69009313467A69B968F86823
:104AD00000F006F8BB6918462037BD4680BD00BF10
:104AE00080B584B000AFF860B9607A60FB70BB68D5
:104AF000002B03D1BB69BA691A6002E0BB697A680E
:104B00001A60BB69FA68DA63BB69BA681A64012182
:104B1000B869FFF741FFBB69FA7883F84C2000BF02
:104B20001037BD4680BD00BF80B586B000AF78604D
:104B300039607B68002B09D14FF0500383F3118853
:104B4000BFF36F8FBFF34F8FFB60FEE73A687B6860
:104B50009A4209D94FF0500383F31188BFF36F8F46
:104B6000BFF34F8F3B61FEE7022200217868FFF719
:104B70007BFF78617B69002B02D07B693A689A637E
:104B80007B6918461837BD4680BD00BF80B58EB022
:104B900000AFF860B9607A603B6000237B63FB681C
:104BA0003B633B6B002B09D14FF0500383F311881B
:104BB000BFF36F8FBFF34F8FFB61FEE7BB68002B26
:104BC00003D13B6B1B6C002B01D1012300E00023C0
:104BD000002B09D14FF0500383F31188BFF36F8F7F
:104BE000BFF34F8F3B62FEE73B68022B03D13B6B69
:104BF000DB6B012B01D1012300E00023002B09D145
:104C00004FF0500383F31188BFF36F8FBFF34F8FC3
:104C10007B62FEE7FEF7CEFE0346002B02D17B68E7
:104C2000002B01D1012300E00023002B09D14FF01C
:104C3000500383F31188BFF36F8FBFF34F8FBB62B5
:104C4000FEE700F021FE3B6B9A6B3B6BDB6B9A42FD
:104C500002D33B68022B29D13A68B968386B00F05F
:104C6000A9FBF8623B6B5B6A002B10D03B6B2433D3
:104C70001846FEF705FD0346002B13D03F4B4FF0BF
:104C800080521A60BFF34F8FBFF36F8F0AE0FB6A49
:104C9000002B07D0394B4FF080521A60BFF34F8F73
:104CA000BFF36F8F00F01EFE012363E07B68002BD3
:104CB00003D100F017FE00235CE07B6B002B06D1D4
:104CC00007F114031846FEF73DFD01237B6300F056
:104CD00009FEFEF78FFA00F0D7FD3B6B93F84430E6
:104CE0005BB2B3F1FF3F03D13B6B002283F844205A
:104CF0003B6B93F845305BB2B3F1FF3F03D13B6BA5
:104D0000002283F8452000F0EDFD3A1D07F1140361
:104D100011461846FEF72CFD0346002B24D1386BB4
:104D200000F040FC0346002B18D03B6B10337A6830
:104D300011461846FEF756FC386B00F0CBFBFEF729
:104D400067FA0346002B7FF47CAF0C4B4FF0805288
:104D50001A60BFF34F8FBFF36F8F72E7386B00F0AD
:104D6000B9FBFEF755FA6CE7386B00F0B3FBFEF7C2
:104D70004FFA002318463837BD4680BD04ED00E0E9
:104D800080B58EB000AFF860B9607A603B60FB68B8
:104D90003B633B6B002B09D14FF0500383F3118829
:104DA000BFF36F8FBFF34F8F7B61FEE7BB68002BB4
:104DB00003D13B6B1B6C002B01D1012300E00023CE
:104DC000002B09D14FF0500383F31188BFF36F8F8D
:104DD000BFF34F8FBB61FEE73B68022B03D13B6BF8
:104DE000DB6B012B01D1012300E00023002B09D153
:104DF0004FF0500383F31188BFF36F8FBFF34F8FD2
:104E0000FB61FEE700F0FAFDEFF311824FF0500373
:104E100083F31188BFF36F8FBFF34F8F3A623B610B
:104E20003B6ABB623B6B9A6B3B6BDB6B9A4202D378
:104E30003B68022B2CD13B6B93F8453087F8273029
:104E40003A68B968386B00F0B5FA97F92730B3F1D2
:104E5000FF3F12D13B6B5B6A002B16D03B6B2433B8
:104E60001846FEF70DFC0346002B0ED07B68002B86
:104E70000BD07B6801221A6007E097F827300133D6
:104E8000DBB25AB23B6B83F8452001237B6301E020
:104E900000237B63BB6AFB62FB6A83F311887B6B35
:104EA00018463837BD4680BD80B58EB000AF7860FB
:104EB00039607B683B633B6B002B09D14FF050039B
:104EC00083F31188BFF36F8FBFF34F8F3B61FEE712
:104ED0003B6B1B6C002B09D04FF0500383F3118800
:104EE000BFF36F8FBFF34F8F7B61FEE73B6B1B6898
:104EF000002B03D13B6B9B68002B01D1012300E009
:104F00000023002B09D14FF0500383F31188BFF326
:104F10006F8FBFF34F8FBB61FEE700F06FFDEFF3C4
:104F200011824FF0500383F31188BFF36F8FBFF3EB
:104F30004F8FFA61FB60FB69BB623B6B9B6B7B62D3
:104F40003B6BDA6B7B6A9A422BD93B6B93F845300B
:104F500087F823307B6A5A1C3B6B9A6397F923309E
:104F6000B3F1FF3F12D13B6B5B6A002B16D03B6B5A
:104F700024331846FEF784FB0346002B0ED03B6813
:104F8000002B0BD03B6801221A6007E097F8233012
:104F90000133DBB25AB23B6B83F8452001237B63BC
:104FA00001E000237B63BB6AFB62FB6A83F3118829
:104FB0007B6B18463837BD4680BD00BF80B58CB0CE
:104FC00000AFF860B9607A600023FB62FB68BB62E7
:104FD000BB6A002B09D14FF0500383F31188BFF354
:104FE0006F8FBFF34F8FBB61FEE7BB68002B03D110
:104FF000BB6A1B6C002B01D1012300E00023002BB6
:1050000009D14FF0500383F31188BFF36F8FBFF3C3
:105010004F8FFB61FEE7FEF7CDFC0346002B02D16C
:105020007B68002B01D1012300E00023002B09D174
:105030004FF0500383F31188BFF36F8FBFF34F8F8F
:105040003B62FEE700F020FCBB6A9B6B7B627B6AE5
:10505000002B1FD0B968B86A00F016FA7B6A5A1E96
:10506000BB6A9A63BB6A1B69002B0FD0BB6A103303
:105070001846FEF705FB0346002B07D03C4B4FF0CC
:1050800080521A60BFF34F8FBFF36F8F00F02AFC7E
:10509000012369E07B68002B03D100F023FC00238F
:1050A00062E0FB6A002B06D107F110031846FEF7F9
:1050B00049FB0123FB6200F015FCFEF79BF800F0B2
:1050C000E3FBBB6A93F844305BB2B3F1FF3F03D11B
:1050D000BB6A002283F84420BB6A93F845305BB278
:1050E000B3F1FF3F03D1BB6A002283F8452000F0F3
:1050F000F9FB3A1D07F1100311461846FEF738FB7D
:105100000346002B23D1B86A00F036FA0346002B81
:1051100017D0BB6A24337A6811461846FEF762FA44
:10512000B86A00F0D7F9FEF773F80346002B89D16F
:105130000F4B4FF080521A60BFF34F8FBFF36F8F4A
:1051400080E7B86A00F0C6F9FEF762F87AE7B86A55
:1051500000F0C0F9FEF75CF8B86A00F00DFA0346FB
:10516000002B3FF46FAF002318463037BD4680BD9B
:1051700004ED00E080B58EB000AF786039600023A8
:105180007B637B68FB6200233B63FB6A002B09D1D6
:105190004FF0500383F31188BFF36F8FBFF34F8F2E
:1051A0007B61FEE7FB6A1B6C002B09D04FF05003BC
:1051B00083F31188BFF36F8FBFF34F8FBB61FEE79F
:1051C000FEF7F8FB0346002B02D13B68002B01D110
:1051D000012300E00023002B09D14FF0500383F39B
:1051E0001188BFF36F8FBFF34F8FFB61FEE700F0B5
:1051F0004BFBFB6A9B6BBB62BB6A002B24D0BB6A78
:105200005A1EFB6A9A63FB6A1B68002B04D1FEF7E7
:105210008BFD0246FB6A9A60FB6A1B69002B0FD06C
:10522000FB6A10331846FEF72BFA0346002B07D013
:10523000534B4FF080521A60BFF34F8FBFF36F8F05
:1052400000F050FB012396E03B68002B10D13B6B34
:10525000002B09D04FF0500383F31188BFF36F8FF9
:10526000BFF34F8F3B62FEE700F03CFB002382E080
:105270007B6B002B06D107F10C031846FEF762FA90
:1052800001237B6300F02EFBFDF7B4FF00F0FCFA76
:10529000FB6A93F844305BB2B3F1FF3F03D1FB6A82
:1052A000002283F84420FB6A93F845305BB2B3F1E7
:1052B000FF3F03D1FB6A002283F8452000F012FB78
:1052C0003A4607F10C0311461846FEF751FA034619
:1052D000002B32D1F86A00F04FF90346002B26D09C
:1052E000FB6A1B68002B09D100F0CEFAFB6A9B68B1
:1052F0001846FEF77DFB386300F0F4FAFB6A2433AE
:105300003A6811461846FEF76DF9F86A00F0E2F8BF
:10531000FDF77EFF0346002B7FF469AF184B4FF07B
:1053200080521A60BFF34F8FBFF36F8F5FE7F86A49
:1053300000F0D0F8FDF76CFF59E7F86A00F0CAF802
:10534000FDF766FFF86A00F017F90346002B3FF4FB
:105350004EAF3B6B002B0DD000F096FAF86A00F0D0
:1053600011F87862FB6A9B68796A1846FEF744FC7C
:1053700000F0B8FA002318463837BD4680BD00BF9C
:1053800004ED00E080B485B000AF78607B685B6AB4
:10539000002B06D07B681B6B1B68C3F10503FB6009
:1053A00001E00023FB60FB6818461437BD4680BC53
:1053B000704700BF80B586B000AFF860B9607A6012
:1053C00000237B61FB689B6B3B61FB681B6C002BC4
:1053D0000DD1FB681B68002B4DD1FB689B681846FC
:1053E000FEF786FB7861FB6800229A6043E07B68E9
:1053F000002B19D1FB685868FB681B6C1A46B9680A
:1054000001F06EFCFB685A68FB681B6C1A44FB6871
:105410005A60FB685A68FB689B689A422BD3FB680A
:105420001A68FB685A6026E0FB68D868FB681B6C4A
:105430001A46B96801F054FCFB68DA68FB681B6C1B
:105440005B421A44FB68DA60FB68DA68FB681B6839
:105450009A4207D2FB689A68FB681B6C5B421A444D
:10546000FB68DA607B68022B05D13B69002B02D018
:105470003B69013B3B613B695A1CFB689A637B6952
:1054800018461837BD4680BD80B582B000AF786041
:1054900039607B681B6C002B18D07B68DA687B68EE
:1054A0001B6C1A447B68DA607B68DA687B689B68EF
:1054B0009A4203D37B681A687B68DA607B68D96894
:1054C0007B681B6C1A46386801F00AFC00BF08377D
:1054D000BD4680BD80B584B000AF786000F0D4F9DF
:1054E0007B6893F84530FB7311E07B685B6A002BA7
:1054F00012D07B6824331846FEF7C2F80346002B0F
:1055000001D0FEF795F9FB7B013BDBB2FB7397F90A
:105510000F30002BE9DC00E000BF7B68FF2283F83E
:10552000452000F0DFF900F0AFF97B6893F84430D4
:10553000BB7311E07B681B69002B12D07B681033B2
:105540001846FEF79DF80346002B01D0FEF770F9D0
:10555000BB7B013BDBB2BB7397F90E30002BE9DC60
:1055600000E000BF7B68FF2283F8442000F0BAF916
:1055700000BF1037BD4680BD80B584B000AF7860F5
:1055800000F082F97B689B6B002B02D10123FB604A
:1055900001E00023FB6000F0A5F9FB681846103716
:1055A000BD4680BD80B584B000AF786000F06CF976
:1055B0007B689A6B7B68DB6B9A4202D10123FB60AC
:1055C00001E00023FB6000F08DF9FB6818461037FE
:1055D000BD4680BD80B485B000AF786039600023DF
:1055E000FB6014E00E4AFB6852F83330002B0BD1FD
:1055F0000B49FB683A6841F83320094AFB68DB0035
:1056000013447A685A6005E0FB680133FB60FB686D
:10561000072BE7D900BF1437BD4680BC704700BFD9
:10562000F83D002080B586B000AFF860B9607A60C0
:10563000FB687B6100F028F97B6993F844305BB22A
:10564000B3F1FF3F03D17B69002283F844207B69DB
:1056500093F845305BB2B3F1FF3F03D17B69002281
:1056600083F8452000F03EF97B699B6B002B06D147
:105670007B6924337A68B9681846FDF7D7FF7869E3
:10568000FFF728FF00BF1837BD4680BD80B485B046
:1056900000AFF860B9607A60FB68043BFB60FB68B0
:1056A0004FF080721A60FB68043BFB60BB6823F01C
:1056B0000102FB681A60FB68043BFB60084AFB6858
:1056C0001A60FB68143BFB607A68FB681A60FB6831
:1056D000203BFB60FB6818461437BD4680BC704712
:1056E000E556000880B485B000AF00237B60104B06
:1056F0001B68B3F1FF3F09D04FF0500383F31188CB
:10570000BFF36F8FBFF34F8FBB60FEE74FF05003C7
:1057100083F31188BFF36F8FBFF34F8FFB6000BF20
:105720007B68002BFCD000BF1437BD4680BC70479F
:105730002C0000200000000000000000000000001D
:10574000074B19680868B0E8F00F80F30988BFF3C9
:105750006F8F4FF0000080F311884EF00D0E7047F0
:105760009800002000BF00BF06480068006880F372
:10577000088862B661B6BFF34F8FBFF36F8F00DF4B
:1057800000BF00BF08ED00E080B586B000AF394B28
:105790007B617B691B78DBB2BB607B69FF221A707F
:1057A0007B691B78DBB2FB71FB79DBB203F0500342
:1057B000DAB2314B1A70314B07221A6009E02F4BD5
:1057C0001B68013B2D4A1360FB79DBB25B00DBB247
:1057D000FB71FB79DBB25BB2002BF0DB274B1B6864
:1057E000C3F10703042B09D04FF0500383F3118852
:1057F000BFF36F8FBFF34F8FFB60FEE71F4B1B683C
:10580000C3F10703042B09D04FF0500383F3118831
:10581000BFF36F8FBFF34F8F3B61FEE7174B1B68E2
:105820001B02164A1360154B1B6803F4E063134A0E
:105830001360BB68DAB27B691A70114A104B1B689F
:1058400043F4700313600E4A0D4B1B6843F0704322
:10585000136000F0B1F80B4B00221A60FFF784FFD1
:10586000FDF740FEFFF73EFF002318461837BD4600
:1058700080BD00BF00E400E0A0010020A4010020E2
:1058800020ED00E02C00002080B483B000AF4FF08A
:10589000500383F31188BFF36F8FBFF34F8F3B60CB
:1058A0000E4B1B6801330D4A13600C4B1B68012B18
:1058B0000ED10B4B1B68DBB2002B09D04FF050030D
:1058C00083F31188BFF36F8FBFF34F8F7B60FEE7C9
:1058D00000BF0C37BD4680BC704700BF2C000020C5
:1058E00004ED00E080B483B000AF104B1B68002BC8
:1058F00009D14FF0500383F31188BFF36F8FBFF3CB
:105900004F8F3B60FEE7094B1B68013B074A136062
:10591000064B1B68002B04D100237B607B6883F35C
:10592000118800BF0C37BD4680BC70472C0000209A
:10593000EFF30980BFF36F8F0D4B1A6820E9F00F6A
:1059400010602DE908404FF0500080F31188FDF7FA
:10595000C9FD4FF0000080F31188BDE808401968C8
:105960000868B0E8F00F80F30988BFF36F8F7047C5
:105970009800002000BF00BF80B582B000AF4FF09C
:10598000500383F31188BFF36F8FBFF34F8F3B60DA
:10599000FDF7E8FC0346002B03D0064B4FF0805286
:1059A0001A6000237B607B6883F3118800BF08378F
:1059B000BD4680BD04ED00E080B400AF0A4B00227C
:1059C0001A600A4B00221A60094A0A4B1B680A49EE
:1059D000A1FB03139B09013B1360034B07221A60D1
:1059E00000BFBD4680BC704710E000E018E000E05A
:1059F00014E000E004000020D34D621080B485B0B4
:105A000000AFEFF30583FB60FB680F2B13D9154A3A
:105A1000FB6813441B78FB72134B1B78FA7A9A428B
:105A200009D24FF0500383F31188BFF36F8FBFF398
:105A30004F8F3B60FEE70D4B1B6803F4E0620C4B9D
:105A40001B689A4209D94FF0500383F31188BFF3C2
:105A50006F8FBFF34F8F7B60FEE700BF1437BD46EB
:105A600080BC7047F0E300E0A00100200CED00E0F6
:105A7000A401002080B582B000AF0023FB71FCF7C9
:105A800079FE4FF48030FCF7A3FE00BF154B1B6876
:105A90004FF4E0114FF48030FCF7C8FE0120FCF712
:105AA000E3FE0220FCF7F0FE0020FCF709FF4FF4B4
:105AB0008060FCF721FF0020FCF73AFF094A094B00
:105AC0001B6823F0010313600120FCF769FF4FF40A
:105AD0000070FCF775FF0120FCF784FF00BF08375A
